{
  "contractName": "TodoContract",
  "abi": [
    {
      "anonymous": false,
      "inputs": [
        {
          "indexed": false,
          "internalType": "string",
          "name": "task",
          "type": "string"
        },
        {
          "indexed": false,
          "internalType": "uint256",
          "name": "taskNumber",
          "type": "uint256"
        }
      ],
      "name": "TaskCreated",
      "type": "event"
    },
    {
      "anonymous": false,
      "inputs": [
        {
          "indexed": false,
          "internalType": "uint256",
          "name": "taskNumber",
          "type": "uint256"
        }
      ],
      "name": "TaskDeleted",
      "type": "event"
    },
    {
      "anonymous": false,
      "inputs": [
        {
          "indexed": false,
          "internalType": "string",
          "name": "task",
          "type": "string"
        },
        {
          "indexed": false,
          "internalType": "uint256",
          "name": "taskId",
          "type": "uint256"
        },
        {
          "indexed": false,
          "internalType": "bool",
          "name": "isComplete",
          "type": "bool"
        }
      ],
      "name": "TaskIsCompleteToggled",
      "type": "event"
    },
    {
      "anonymous": false,
      "inputs": [
        {
          "indexed": false,
          "internalType": "string",
          "name": "task",
          "type": "string"
        },
        {
          "indexed": false,
          "internalType": "uint256",
          "name": "taskId",
          "type": "uint256"
        }
      ],
      "name": "TaskUpdated",
      "type": "event"
    },
    {
      "inputs": [],
      "name": "taskCount",
      "outputs": [
        {
          "internalType": "uint256",
          "name": "",
          "type": "uint256"
        }
      ],
      "stateMutability": "view",
      "type": "function",
      "constant": true
    },
    {
      "inputs": [
        {
          "internalType": "uint256",
          "name": "",
          "type": "uint256"
        }
      ],
      "name": "todos",
      "outputs": [
        {
          "internalType": "uint256",
          "name": "index",
          "type": "uint256"
        },
        {
          "internalType": "string",
          "name": "taskName",
          "type": "string"
        },
        {
          "internalType": "bool",
          "name": "isComplete",
          "type": "bool"
        }
      ],
      "stateMutability": "view",
      "type": "function",
      "constant": true
    },
    {
      "inputs": [
        {
          "internalType": "string",
          "name": "_taskName",
          "type": "string"
        }
      ],
      "name": "createTask",
      "outputs": [],
      "stateMutability": "nonpayable",
      "type": "function"
    },
    {
      "inputs": [
        {
          "internalType": "uint256",
          "name": "_taskId",
          "type": "uint256"
        },
        {
          "internalType": "string",
          "name": "_taskName",
          "type": "string"
        }
      ],
      "name": "updateTask",
      "outputs": [],
      "stateMutability": "nonpayable",
      "type": "function"
    },
    {
      "inputs": [
        {
          "internalType": "uint256",
          "name": "_taskId",
          "type": "uint256"
        }
      ],
      "name": "deleteTask",
      "outputs": [],
      "stateMutability": "nonpayable",
      "type": "function"
    },
    {
      "inputs": [
        {
          "internalType": "uint256",
          "name": "_taskId",
          "type": "uint256"
        }
      ],
      "name": "toggleComplete",
      "outputs": [],
      "stateMutability": "nonpayable",
      "type": "function"
    }
  ],
  "bytecode": "0x60806040526000805534801561001457600080fd5b50610c81806100246000396000f3fe608060405234801561001057600080fd5b50600436106100625760003560e01c80630951e5bd14610067578063111002aa14610083578063560f31921461009f57806386533f6c146100bb578063b6cb58a5146100d7578063bc8bc2b4146100f5575b600080fd5b610081600480360381019061007c9190610831565b610127565b005b61009d600480360381019061009891906107e8565b6102cb565b005b6100b960048036038101906100b49190610831565b6103aa565b005b6100d560048036038101906100d0919061085e565b610426565b005b6100df6105bb565b6040516100ec919061097f565b60405180910390f35b61010f600480360381019061010a9190610831565b6105c1565b60405161011e9392919061099a565b60405180910390f35b6000600160008381526020019081526020016000206040518060600160405290816000820154815260200160018201805461016190610ad6565b80601f016020809104026020016040519081016040528092919081815260200182805461018d90610ad6565b80156101da5780601f106101af576101008083540402835291602001916101da565b820191906000526020600020905b8154815290600101906020018083116101bd57829003601f168201915b505050505081526020016002820160009054906101000a900460ff161515151581525050905060405180606001604052808381526020018260200151815260200182604001511515158152506001600084815260200190815260200160002060008201518160000155602082015181600101908051906020019061025f929190610680565b5060408201518160020160006101000a81548160ff0219169083151502179055509050507f21d25b1182ece704b24eedd00ef3879b75f4bd2e9a3137cfde0c6405b28ce78c8160200151838360400151156040516102bf93929190610941565b60405180910390a15050565b60405180606001604052806000548152602001828152602001600015158152506001600080548152602001908152602001600020600082015181600001556020820151816001019080519060200190610325929190610680565b5060408201518160020160006101000a81548160ff02191690831515021790555090505060008081548092919061035b90610b39565b91905055507fed1d390c812a65783a09786b88b832ef75bb16882fbc56eeea9bf61a4c1a8ac78160016000546103919190610a4a565b60405161039f929190610911565b60405180910390a150565b600160008281526020019081526020016000206000808201600090556001820160006103d69190610706565b6002820160006101000a81549060ff021916905550507fd078b251d950cc55c44340be1db732337ef4939a76e1367ee271ad2cb19c46af8160405161041b919061097f565b60405180910390a150565b6000600160008481526020019081526020016000206040518060600160405290816000820154815260200160018201805461046090610ad6565b80601f016020809104026020016040519081016040528092919081815260200182805461048c90610ad6565b80156104d95780601f106104ae576101008083540402835291602001916104d9565b820191906000526020600020905b8154815290600101906020018083116104bc57829003601f168201915b505050505081526020016002820160009054906101000a900460ff161515151581525050905060405180606001604052808481526020018381526020018260400151151581525060016000858152602001908152602001600020600082015181600001556020820151816001019080519060200190610559929190610680565b5060408201518160020160006101000a81548160ff0219169083151502179055509050507fa19b2211615873e8fbe860460ba43e467bf8f2d28d98b023144fc0739af842cd82846040516105ae929190610911565b60405180910390a1505050565b60005481565b60016020528060005260406000206000915090508060000154908060010180546105ea90610ad6565b80601f016020809104026020016040519081016040528092919081815260200182805461061690610ad6565b80156106635780601f1061063857610100808354040283529160200191610663565b820191906000526020600020905b81548152906001019060200180831161064657829003601f168201915b5050505050908060020160009054906101000a900460ff16905083565b82805461068c90610ad6565b90600052602060002090601f0160209004810192826106ae57600085556106f5565b82601f106106c757805160ff19168380011785556106f5565b828001600101855582156106f5579182015b828111156106f45782518255916020019190600101906106d9565b5b5090506107029190610746565b5090565b50805461071290610ad6565b6000825580601f106107245750610743565b601f0160209004906000526020600020908101906107429190610746565b5b50565b5b8082111561075f576000816000905550600101610747565b5090565b6000610776610771846109fd565b6109d8565b90508281526020810184848401111561079257610791610c14565b5b61079d848285610a94565b509392505050565b600082601f8301126107ba576107b9610c0f565b5b81356107ca848260208601610763565b91505092915050565b6000813590506107e281610c34565b92915050565b6000602082840312156107fe576107fd610c1e565b5b600082013567ffffffffffffffff81111561081c5761081b610c19565b5b610828848285016107a5565b91505092915050565b60006020828403121561084757610846610c1e565b5b6000610855848285016107d3565b91505092915050565b6000806040838503121561087557610874610c1e565b5b6000610883858286016107d3565b925050602083013567ffffffffffffffff8111156108a4576108a3610c19565b5b6108b0858286016107a5565b9150509250929050565b6108c381610a7e565b82525050565b60006108d482610a2e565b6108de8185610a39565b93506108ee818560208601610aa3565b6108f781610c23565b840191505092915050565b61090b81610a8a565b82525050565b6000604082019050818103600083015261092b81856108c9565b905061093a6020830184610902565b9392505050565b6000606082019050818103600083015261095b81866108c9565b905061096a6020830185610902565b61097760408301846108ba565b949350505050565b60006020820190506109946000830184610902565b92915050565b60006060820190506109af6000830186610902565b81810360208301526109c181856108c9565b90506109d060408301846108ba565b949350505050565b60006109e26109f3565b90506109ee8282610b08565b919050565b6000604051905090565b600067ffffffffffffffff821115610a1857610a17610be0565b5b610a2182610c23565b9050602081019050919050565b600081519050919050565b600082825260208201905092915050565b6000610a5582610a8a565b9150610a6083610a8a565b925082821015610a7357610a72610b82565b5b828203905092915050565b60008115159050919050565b6000819050919050565b82818337600083830152505050565b60005b83811015610ac1578082015181840152602081019050610aa6565b83811115610ad0576000848401525b50505050565b60006002820490506001821680610aee57607f821691505b60208210811415610b0257610b01610bb1565b5b50919050565b610b1182610c23565b810181811067ffffffffffffffff82111715610b3057610b2f610be0565b5b80604052505050565b6000610b4482610a8a565b91507fffffffffffffffffffffffffffffffffffffffffffffffffffffffffffffffff821415610b7757610b76610b82565b5b600182019050919050565b7f4e487b7100000000000000000000000000000000000000000000000000000000600052601160045260246000fd5b7f4e487b7100000000000000000000000000000000000000000000000000000000600052602260045260246000fd5b7f4e487b7100000000000000000000000000000000000000000000000000000000600052604160045260246000fd5b600080fd5b600080fd5b600080fd5b600080fd5b6000601f19601f8301169050919050565b610c3d81610a8a565b8114610c4857600080fd5b5056fea264697066735822122061130628869467622d24c347d2a94aff33de7d690cf0008ed72643f166f0c50e64736f6c63430008060033",
  "immutableReferences": {},
  "source": "// SPDX-License-Identifier: GPL-3.0\r\npragma solidity ^0.8.6;\r\n\r\ncontract TodoContract {\r\n  uint256 public taskCount = 0;\r\n\r\n  struct Task {\r\n    uint256 index;\r\n    string taskName;\r\n    bool isComplete;\r\n  }\r\n\r\n  mapping(uint256 => Task) public todos;\r\n  event TaskCreated(string task, uint256 taskNumber);\r\n  event TaskUpdated(string task, uint256 taskId);\r\n  event TaskIsCompleteToggled(string task, uint256 taskId, bool isComplete);\r\n  event TaskDeleted(uint256 taskNumber);\r\n\r\n  function createTask(string memory _taskName) public {\r\n  todos[taskCount] = Task(taskCount, _taskName, false);\r\n  taskCount++;\r\n  emit TaskCreated(_taskName, taskCount - 1);\r\n}\r\n\r\nfunction updateTask(uint256 _taskId, string memory _taskName) public {\r\n  Task memory currTask = todos[_taskId];\r\n  todos[_taskId] = Task(_taskId, _taskName, currTask.isComplete);\r\n  emit TaskUpdated(_taskName, _taskId);\r\n}\r\n\r\nfunction deleteTask(uint256 _taskId) public {\r\n  delete todos[_taskId];\r\n  emit TaskDeleted(_taskId);\r\n}\r\n\r\nfunction toggleComplete(uint256 _taskId) public {\r\n  Task memory currTask = todos[_taskId];\r\n  todos[_taskId] = Task(_taskId, currTask.taskName, !currTask.isComplete);\r\n\r\n  emit TaskIsCompleteToggled(\r\n    currTask.taskName,\r\n    _taskId,\r\n    !currTask.isComplete\r\n  );\r\n}\r\n}",
  "sourcePath": "C:\\Users\\123\\Downloads\\TodoDapp\\contracts\\TodoContract.sol",
  "compiler": {
    "name": "solc",
    "version": "0.8.6+commit.11564f7e.Emscripten.clang"
  },
  "schemaVersion": "3.4.10",
  "updatedAt": "2022-11-15T17:10:54.088Z",
  "networkType": "ethereum",
  "devdoc": {
    "kind": "dev",
    "methods": {},
    "version": 1
  },
  "userdoc": {
    "kind": "user",
    "methods": {},
    "version": 1
  }
}